:10026700EF1FAC0670011E4C600A7D0B7CBEDCFEE6
:04027700DDFC80EC3E
:01027B002260
:06029000C2A58F80D2A779
:080296007F027EEFDEFEDFFCBB
:01029E00223D
:0A02AB00C2A6120290C2A70202963A
:10000300CFCDCFCECCCE1200657C007D0A12006529
:04001300ED2430FFA9
:0A001700D2A6120290C2A7020296C0
:10025100AE07BE0104ED148006BE0209ED243F4441
:0602610080FF1202AB2237
:10027C007F381202AB7F0C1202AB7F061202AB7FEF
:04028C00010202ABBE
:0A02B500AC03120251AF040200175F
:0601DF008B228A23892413
:1001E500120251E4FDAB22AA23A9248D8275830056
:0C01F500120026FF60061200170D80E9C2
:0102010022DA
:0C01AC007F0AEA24FFFDE434FFFC7E0023
:0801B8008E1E8F1F8C208D218B
:1001C0007F017E00E4FBEBC39521E5206480F87499
:0E01D0008098500AAC1EAD1F1200530B80E841
:0101DE0022FE
:040202008A118B12C0
:10020600120251AA13EAD39400400D1201ACAC11AC
:08021600AD121200031A80ED85
:01021E0022BD
:10010100120251C3EA64809480400B7F2B120017C6
:100111008A0D8B0E800E7F2D120017C3E49BF50E06
:10012100E49AF50DAA0CEAD39400400D1201ACAC8F
:090131000DAD0E1200031A80ED61
:01013A0022A2
:04013B008A168B177E
:10013F00120251AA18EAD3940040297F101201AE7F
:10014F00AC16AD17CFCDCFCECCCE120065EF540F7E
:10015F00FEC3940AEE5004243080022437FF1200AD
:04016F00171A80D10A
:010173002269
:040174008A1B8B1C3B
:10017800120251AA1DEAD394004028EA24FFFDE4A4
:1001880034FFFC7F027E001201B8AC1BAD1CCFCD42
:10019800CFCECCCE120065EF54012430FF120017E9
:0301A8001A80D2E8
:0101AB002231
:0502C70012021F80FE81
:030023000200BA1E
:1000BA00C0E0C0F0C083C082C0D075D000C000C00C
:1000CA0001C002C003C004C005C006C00730980CB6
:1000DA00E599F4F5A0AF991202BFC298D007D006ED
:1000EA00D005D004D003D002D001D000D0D0D08225
:0700FA00D083D0F0D0E0320A
:10021F0075985043878053890F438920D28EC2AB84
:0B022F00758BF3758DF3D2AFD2AC22BB
:0802BF008F993099FDC29922CC
:10023A005389F0438901758A18758CFCC28DD28C5A
:07024A00D2A9D2AFC2B92214
:0300000002029F5A
:0C029F00787FE4F6D8FD7581240202C7C8
:10002600BB010CE58229F582E5833AF583E022508F
:1000360006E92582F8E622BBFE06E92582F8E222D9
:0D004600E58229F582E5833AF583E49322F3
:10005300EF8DF0A4A8F0CF8CF0A428CE8DF0A42EC1
:02006300FE227B
:10006500BC000BBE0029EF8DF084FFADF022E4CC7F
:10007500F875F008EF2FFFEE33FEEC33FCEE9DEC48
:10008500984005FCEE9DFE0FD5F0E9E4CEFD22ED8E
:10009500F8F5F0EE8420D21CFEADF075F008EF2FD8
:1000A500FFED33FD4007985006D5F0F222C398FDC9
:0500B5000FD5F0EA2266
:00000001FF
