:0300CC0001080028
:050003001200B780FEB1
:03000B0002009A56
:10009A00C0E0C0D0758AF0758CD80508E508C3940D
:0D00AA00644005B2A0750800D0D0D0E0324F
:1000B7005389F0438901758AF0758CD8C28DD28C2B
:0500C700D2AFD2A92216
:0300000002000EED
:0C000E00787FE4F6D8FD758108020055EB
:10001A00020003E493A3F8E493A34003F68001F2F9
:10002A0008DFF48029E493A3F85407240CC8C333E7
:10003A00C4540F4420C8834004F456800146F6DFB6
:10004A00E4800B01020408102040809000CCE47E7A
:10005A00019360BCA3FF543F30E509541FFEE493AB
:10006A00A360010ECF54C025E060A840B8E493A372
:10007A00FAE493A3F8E493A3C8C582C8CAC583CA9D
:10008A00F0A3C8C582C8CAC583CADFE9DEE780BE55
:0100CF000030
:00000001FF
