:10000600EF1FAC0670011E4C600A7D027CEFDCFE21
:04001600DDFC80ECA1
:01001A0022C3
:060528001204E70204F2D8
:05052E00AF09E4F5092E
:0105330022A5
:05053400AF13E4F51314
:01053900229F
:03054000AF0E22D9
:03054300AF1222D2
:0300030002001EDA
:10001E00C0E0C0F0C083C082C0D075D000C000C0A8
:10002E0001C002C003C004C005C006C007E50F70C2
:10003E000CFFFE1205217F0112053A8049E50F647F
:10004E000170491205118E108F11E4FFFE12052169
:10005E00D3E51194A6E510942E4010E511948EE58B
:10006E001094325006750F0202014DD3E511948C97
:10007E00E51094264010E5119474E510942A50066C
:10008E0075130102014A750F0102014DE50F64025D
:10009E00600302014D1205118E108F11E4FFFE1246
:1000AE000521D3E5119414E5109402402BE511942B
:1000BE00FCE51094055021E508131313541F240A70
:1000CE00F8C000E6FFE5085407FEF8740108800248
:1000DE00C333D8FCF45F8033D3E5119426E5109436
:1000EE0006402FE511940EE510940A5025E50813ED
:1000FE001313541F240AF8C000E6FFE5085407FE48
:10010E00F87401088002C333D8FC4FD000F60508FE
:10011E008006750800750F01E508C3942040207510
:10012E000800E50BF4B50A0FE50DF4B50C09850AC8
:10013E000E850C12750901E4FF12053A750F00D0F9
:10014E0007D006D005D004D003D002D001D000D005
:0A015E00D0D082D083D0F0D0E03280
:0B04E700D288C289D2A8D2AFD2B822BE
:0604D800C2A58F80D2A72F
:0804DE007F027EEFDEFEDFFC71
:0104E60022F3
:0A04FD00C2A61204D8C2A70204DE52
:10045E00CFCDCFCECCCE12025C7C007D0A12025CD8
:04046E00ED2430FF4A
:0A047200D2A61204D8C2A70204DECD
:10049900AE07BE0104ED148006BE0209ED243F44F7
:0604A90080FF1204FD2299
:1004C4007F381204FD7F0C1204FD7F061204FD7FA9
:0404D400010204FD20
:0A050700AC03120499AF0402047261
:06041B008B358A3689379B
:10042100120499E4FDAB35AA36A9378D8275830094
:0C04310012021DFF60061204720D80E92B
:01043D00229C
:0C03E8007F0AEA24FFFDE434FFFC7E00E5
:0803F4008E318F328C338D3401
:1003FC007F017E00E4FBEBC39534E5336480F87435
:0E040C008098500AAC31AD3212024A0B80E8E3
:01041A0022BF
:04047C008A248B251E
:10048000120499AA26EAD39400400D1203E8AC2482
:08049000AD2512045E1A80ED97
:010498002241
:10033D00120499C3EA64809480400B7F2B120472DF
:10034D008A198B1A800E7F2D120472C3E49BF51A45
:10035D00E49AF519AA18EAD39400400D1203E8ACFB
:09036D0019AD1A12045E1A80EDAC
:010376002264
:040377008A298B2A1A
:10037B00120499AA2BEAD3940040297F101203EAA6
:10038B00AC29AD2ACFCDCFCECCCE12025CEF540F21
:10039B00FEC3940AEE5004243080022437FF12046B
:0403AB00721A80D171
:0103AF00222B
:0403B0008A2E8B2FD7
:1003B400120499AA30EAD394004028EA24FFFDE409
:1003C40034FFFC7F027E001203F4AC2EAD2FCFCDA0
:1003D400CFCECCCE12025CEF54012430FF12047253
:0303E4001A80D2AA
:0103E70022F3
:06051A00011C32011B0070
:10043E001205281204AFC2A3C2A1C2A2C2A0120505
:10044E002EEF60FA1205408F201205438F1F80EEAB
:03001B0002016877
:10016800C0E0C0F0C0D075D000C007758BA4758DF5
:10017800FF051BE51B75F0648485F01BE51FB418AB
:1001880013C2A3C2A1E51BD3951C5006D2A2D2A0CC
:10019800807A8074E51FB45217C2A2C2A0E51BD3AF
:1001A800951C5006D2A3D2A18062C2A3C2A1805CD2
:1001B800E51F64087024C2A3C2A1E51BD3951C5097
:1001C80004D2A28002C2A2E51C24E2FFE51BD39F51
:1001D8005004D2A08036C2A08032E51F645A702431
:1001E800C2A3C2A1E51BD3951C5004D2A08002C2B1
:1001F800A0E51C24E2FFE51BD39F5004D2A2800C8B
:10020800C2A28008C2A3C2A1C2A2C2A0D007D0D0F5
:05021800D0F0D0E0323F
:0B04F2005389F0438901C28DC28C22A7
:07052100AD078D8A8E8C22CC
:09051100AF8CEFFEAD8AEDFF2274
:06053A00EF24FF928C2269
:030546008F3822C9
:1004AF0053890F438910758BA4758DFFC28FD28E20
:0504BF00D2ABD2AF2218
:030000000202B148
:0C02B100787FE4F6D8FD7581380202F871
:10021D00BB010CE58229F582E5833AF583E0225096
:10022D0006E92582F8E622BBFE06E92582F8E222E0
:0D023D00E58229F582E5833AF583E49322FA
:10024A00EF8DF0A4A8F0CF8CF0A428CE8DF0A42EC8
:02025A00FE2282
:10025C00BC000BBE0029EF8DF084FFADF022E4CC86
:10026C00F875F008EF2FFFEE33FEEC33FCEE9DEC4F
:10027C00984005FCEE9DFE0FD5F0E9E4CEFD22ED95
:10028C00F8F5F0EE8420D21CFEADF075F008EF2FDF
:10029C00FFED33FD4007985006D5F0F222C398FDD0
:0502AC000FD5F0EA226D
:1002BD0002043EE493A3F8E493A34003F68001F215
:1002CD0008DFF48029E493A3F85407240CC8C33342
:1002DD00C4540F4420C8834004F456800146F6DF11
:1002ED00E4800B010204081020408090051AE47E82
:1002FD00019360BCA3FF543F30E509541FFEE49306
:10030D00A360010ECF54C025E060A840B8E493A3CC
:10031D00FAE493A3F8E493A3C8C582C8CAC583CAF7
:10032D00F0A3C8C582C8CAC583CADFE9DEE780BEAF
:0105200000DA
:00000001FF
