:03000800202000B5
:10062E00011800011900011700010A000C0B1F1C14
:0A063E001F1E1F1E1F1F1E1F1E1F80
:100352001206E6E521FB3395E0FA752C027D017F5A
:10036200011206C9E522FB3395E0FA752C027D04E1
:100372007F011206C9E523FB3395E0FA752C027D55
:10038200077F011206C9E524FB3395E0FA752C02BA
:100392007D017F021206C9E525FB3395E0FA752C33
:1003A200027D047F021206C9E526FB3395E0FA7549
:0903B2002C027D077F020206C93E
:0B078600EF540370037F01227F00226C
:10000E00E51964027023E5172401FFE433FE7C003A
:10001E007D061202718D17E517FB7A00752C027D95
:10002E000A7F021206C9020138E51964037073745F
:10003E00212517F806AF21120786EF6005750C1DF6
:10004E008003750C1CC3E526648094BC4003E4F564
:10005E0026C3E525648094BC4003E4F525C3E5245E
:10006E00648094984003E4F524D3E521648094E3FE
:10007E004003E4F521D3E5226480948C400375227D
:10008E0001740A2522F8E6FFAD23ED3395E0FCD38B
:10009E00ED9F7480F86C98500302013875230102AD
:1000AE000138E5196404600302013874212517F83C
:1000BE0016AF21120786EF6005750C1D8003750CB7
:1000CE001CC3E52664809480500375263BC3E5254A
:1000DE0064809480500375253BC3E524648094802E
:1000EE005003752417C3E521648094805003752155
:1000FE0063D3E52264809480500375220C740A2524
:10010E0022F8E6FFFDE523FB3395E0FAD3EB9D7471
:10011E0080F86A98500CE52364809480500C8F23ED
:10012E008008740A2522F8E6F523E5177014E50A0F
:10013E00B4010F7BFF7A0079087D017F01120688DA
:10014E008011E521FB3395E0FA752C027D017F01CC
:10015E001206C9E517B40114E50AB4010F7BFF7A44
:10016E000079087D047F011206888011E522FB3399
:10017E0095E0FA752C027D047F011206C9E517B4CD
:10018E000214E50AB4010F7BFF7A0079087D077F20
:10019E00011206888011E523FB3395E0FA752C02D7
:1001AE007D077F011206C9E517B40314E50AB401F1
:1001BE000F7BFF7A0079087D017F0212068880117D
:1001CE00E524FB3395E0FA752C027D017F021206C1
:1001DE00C9E517B40414E50AB4010F7BFF7A007960
:1001EE00087D047F021206888011E525FB3395E019
:1001FE00FA752C027D047F021206C9E517B40512AA
:10020E00E50AB4010D7BFF7A0079087D077F0202B3
:10021E000688E526FB3395E0FA752C027D077F02F2
:04022E001206C922C9
:100473001200031207411206FF12065B1203BB8F21
:1004830019E519B40113E51870047F0180027F0098
:100493008F18E518700312065BE518FB7A00752CBC
:1004A300017D0A7F011206C9E5187014E518FB7A6D
:1004B30000752C017D0D7F011206C912035280BC09
:0504C30012000E80B7DD
:03000B000205519A
:09055100C0E0C0D075D000C00765
:10055A00758A18758CFC0509E50970020508C394AB
:10056A00F4E50894014012750800750900E50A705F
:09057A00047F0180027F008F0A5A
:07058300D007D0D0D0E03218
:10064800071A8C88868482808A0721170C1F0A263D
:02065800170386
:05000300C2B5C2B622E7
:06041C008C288D29AB07BE
:10042200D2B5E4FD7E007401A805088005C333CE71
:1004320033CED8F9FFEBF582EF558224FF92B4D286
:10044200B6C2B60DBD08DDE4FD7E007401A8050844
:100452008005C333CE33CED8F9FFE5285EFEE52909
:100462005F4E24FF92B4D2B6C2B60DBD08DBC2B550
:010472002267
:0204C800AD077E
:1004CA00E4F9430501D2B5FB7E007401A803088054
:1004DA0005C333CE33CED8F9FFEDF582EF5582242A
:1004EA00FF92B4D2B6C2B60BBB08DDE4FBA2B4E4F9
:1004FA0033FFC43333335480FEE9C3134EF9D2B603
:0C050A00C2B60BBB08E7C2B5C2B4AF011B
:0105160022C2
:10075500EF75F00A84C454F0FEEF75F00A84EE25B7
:03076500F0FF2280
:0F076800EFC4540F75F00AA4FEEF540F2EFF22BA
:10065B00E4FDFC7F8E12041CE4FA74212AF8E6FFF9
:10066B00120755EFFD7C00741A2AF8E6FF12041CE2
:0D067B000ABA07E67D807C007F8E02041C19
:1006E600E4FC741A2CF8E6FF1204C8120768742199
:0806F6002CF8A6070CBC07EA72
:0106FE0022D9
:06077700C2A58F80D2A78D
:08077D007F027EEFDEFEDFFCCF
:010785002251
:0A079100C2A6120777C2A702077D77
:1006AB00CFCDCFCECCCE1202717C007D0A1202715F
:0406BB00ED2430FFFB
:0A06BF00D2A6120777C2A702077D3A
:10071600AE07BE0104ED148006BE0209ED243F4477
:0607260080FF1207912282
:100741007F381207917F0C1207917F061207917F64
:040751000102079109
:0A079B00AC03120716AF040206BFFC
:060688008B288A29892A53
:10068E00120716E4FDAB28AA29A92A8D82758300CC
:0C069E00120232FF60061206BF0D80E958
:0106AA00222D
:0C05FB007F0AEA24FFFDE434FFFC7E00D0
:080607008E2D8F2E8C2F8D30FB
:10060F007F017E00E4FBEBC39530E52F6480F87427
:0E061F008098500AAC2DAD2E12025F0B80E8C1
:01062D0022AA
:0406C9008A2A8B2BC3
:1006CD00120716AA2CEAD39400400D1205FBAC2A92
:0806DD00AD2B1206AB1A80EDF3
:0106E50022F2
:10051700120716C3EA64809480400B7F2B1206BF34
:100527008A368B37800E7F2D1206BFC3E49BF537C3
:10053700E49AF536AA35EAD39400400D1205FBACD0
:0905470036AD371206AB1A80ED47
:010550002288
:04058A008A3A8B3BE3
:10058E00120716AA3CEAD3940040297F101205FDEB
:10059E00AC3AAD3BCFCDCFCECCCE120271EF540FD5
:1005AE00FEC3940AEE5004243080022437FF120654
:0405BE00BF1A80D10F
:0105C2002216
:0405C3008A3F8B40A0
:1005C700120716AA41EAD394004028EA24FFFDE463
:1005D70034FFFC7F027E00120607AC3FAD40CFCD53
:1005E700CFCECCCE120271EF54012430FF1206BFDA
:0305F7001A80D295
:0105FA0022DE
:1003BB00E4F52820B1137F14FE12072C30B1FD7F1A
:1003CB00147E0012072C75280120B0147F147E00B8
:1003DB0012072C30B0FD7F147E0012072C752802FB
:1003EB0020B2147F147E0012072C30B2FD7F147ED6
:1003FB000012072C75280320B3147F147E001207FC
:10040B002C30B3FD7F147E0012072C752804AF2807
:01041B0022BE
:10072C00EF1FAC0670011E4C600A7D0B7CBEDCFE1C
:04073C00DDFC80EC74
:010740002296
:1006FF005389F0438901758A18758CFCC28DD28C91
:07070F00D2A9D2AFC2B9224A
:030000000202C633
:0C02C600787FE4F6D8FD75814102030D3D
:10023200BB010CE58229F582E5833AF583E0225081
:1002420006E92582F8E622BBFE06E92582F8E222CB
:0D025200E58229F582E5833AF583E49322E5
:10025F00EF8DF0A4A8F0CF8CF0A428CE8DF0A42EB3
:02026F00FE226D
:10027100BC000BBE0029EF8DF084FFADF022E4CC71
:10028100F875F008EF2FFFEE33FEEC33FCEE9DEC3A
:10029100984005FCEE9DFE0FD5F0E9E4CEFD22ED80
:1002A100F8F5F0EE8420D21CFEADF075F008EF2FCA
:1002B100FFED33FD4007985006D5F0F222C398FDBB
:0502C1000FD5F0EA2258
:1002D200020473E493A3F8E493A34003F68001F2CB
:1002E20008DFF48029E493A3F85407240CC8C3332D
:1002F200C4540F4420C8834004F456800146F6DFFC
:10030200E4800B010204081020408090062EE47E57
:10031200019360BCA3FF543F30E509541FFEE493F0
:10032200A360010ECF54C025E060A840B8E493A3B7
:10033200FAE493A3F8E493A3C8C582C8CAC583CAE2
:10034200F0A3C8C582C8CAC583CADFE9DEE780BE9A
:01065A00009F
:00000001FF
