:0400FE007F147E00ED
:10010200EF1FAC0670011E4C600A7D027CC7DCFE4C
:04011200DDFC80ECA4
:0101160022C6
:10008E007B017A009000007401F4F5A020B12E12CD
:10009E0000FE30B1FD1200FEE5822401FFE435833F
:1000AE00FE7C007D081200038C838D82AF82AE032E
:1000BE00A807EE088002C333D8FCF4F5A020B0CC1C
:1000CE001200FE30B0FD1200FEE5822407FFE4357B
:1000DE0083FE7C007D081200038C838D82AF82AE7E
:1000EE0003A807EE088002C333D8FCF4F5A0809C69
:03000000020117E3
:0C011700787FE4F6D8FD75810702008EA9
:10000300C2D5EC30E709B2D5E4C39DFDE49CFCEE18
:1000130030E715B2D5E4C39FFFE49EFE120039C357
:10002300E49DFDE49CFC800312003930D507C3E452
:060033009FFFE49EFE2287
:10003900BC000BBE0029EF8DF084FFADF022E4CCAB
:10004900F875F008EF2FFFEE33FEEC33FCEE9DEC74
:10005900984005FCEE9DFE0FD5F0E9E4CEFD22EDBA
:10006900F8F5F0EE8420D21CFEADF075F008EF2F04
:10007900FFED33FD4007985006D5F0F222C398FDF5
:050089000FD5F0EA2292
:00000001FF
