:0600DA000109000108000D
:1000B200120003120018E50860FCAF091200D2E436
:0400C200F50880F2CB
:030023000200C612
:0C00C600309808859909C298750801322D
:0B001800759850758780D2AFD2AC22E3
:10000300C28FD28EC2ABD2AF53890F438920758B77
:05001300FA758DFA22D0
:0800D2008F993099FDC29922BB
:03000000020026D5
:0C002600787FE4F6D8FD75810902006DBA
:100032000200B2E493A3F8E493A34003F68001F232
:1000420008DFF48029E493A3F85407240CC8C333CF
:10005200C4540F4420C8834004F456800146F6DF9E
:10006200E4800B01020408102040809000DAE47E54
:10007200019360BCA3FF543F30E509541FFEE49393
:10008200A360010ECF54C025E060A840B8E493A35A
:10009200FAE493A3F8E493A3C8C582C8CAC583CA85
:1000A200F0A3C8C582C8CAC583CADFE9DEE780BE3D
:0100E000001F
:00000001FF
