:06000300010900010800E4
:1001630075A0FE12014C12009A8F09E50960F7543D
:0501730001F50880F118
:03000B000200FBF5
:1000FB00C0E0C0D075D000C000C007758A18758CE1
:10010B00FC050BE50B7002050AC394E8E50A9403A2
:10011B004026E508700FAFA07801EF08800123D8C7
:10012B00FDF5A0800DAFA07801EF08800103D8FD8D
:10013B00F5A0750A00750B00D007D000D0D0D0E029
:01014B003281
:10014C005389F0438901758A18758CFCC28DD28C49
:07015C00D2A9D2AFC2B92203
:10009A00E4F50C20B1137F14FE12017830B1FD7F14
:1000AA00147E00120178750C0120B0147F147E00B2
:1000BA0012017830B0FD7F147E00120178750C02AF
:1000CA0020B2147F147E0012017830B2FD7F147EB4
:1000DA0000120178750C0320B3147F147E001201FC
:1000EA007830B3FD7F147E00120178750C04AF0CD2
:0100FA0022E3
:10017800EF1FAC0670011E4C600A7D0B7CBEDCFED6
:04018800DDFC80EC2E
:01018C002250
:0300000002000EED
:0C000E00787FE4F6D8FD75810C020055E7
:10001A00020163E493A3F8E493A34003F68001F298
:10002A0008DFF48029E493A3F85407240CC8C333E7
:10003A00C4540F4420C8834004F456800146F6DFB6
:10004A00E4800B0102040810204080900003E47E43
:10005A00019360BCA3FF543F30E509541FFEE493AB
:10006A00A360010ECF54C025E060A840B8E493A372
:10007A00FAE493A3F8E493A3C8C582C8CAC583CA9D
:10008A00F0A3C8C582C8CAC583CADFE9DEE780BE55
:0100090000F6
:00000001FF
