:0E02F000676F6F6400483A004D3A00533A00C1
:1000A2001202CD7BFF7A0279F07D017F0112022DCF
:1000B20012028BE51AB43C05E4F51A051CE51CB4E2
:1000C2003C05E4F51C051BE51BB41803E4F51B7B9A
:1000D200FF7A0279F57D017F0112022DE51BFB7A81
:1000E20000750C027D037F0112026E7BFF7A02799A
:1000F200F87D057F0112022DE51CFB7A00750C02CA
:100102007D077F0112026E7BFF7A0279FB7D097FF8
:100112000112022DE51AFB7A00750C027D0B7F019C
:0501220012026E808E48
:03000B00020205E9
:04020500C0E0C0D0C5
:10020900758A18758CFC0519E51970020518C394CF
:0F021900E8E51894034008051A751800751900D8
:05022800D0D0D0E0324F
:1002B800EF1FAC0670011E4C600A7D0B7CBEDCFE95
:0402C800DDFC80ECED
:0102CC00220F
:0602E100C2A58F80D2A728
:0802E7007F027EEFDEFEDFFC6A
:0102EF0022EC
:0A030A00C2A61202E1C2A70202E738
:10025000CFCDCFCECCCE12004D7C007D0A12004D0A
:04026000ED2430FF5A
:0A026400D2A61202E1C2A70202E7CF
:1002A200AE07BE0104ED148006BE0209ED243F44F0
:0602B20080FF12030A2286
:1002CD007F3812030A7F0C12030A7F0612030A7F7E
:0402DD000102030A0D
:0A031400AC031202A2AF040202645F
:06022D008B088A09890A12
:100233001202A2E4FDAB08AA09A90A8D8275830004
:0C02430012000EFF60061202640D80E93C
:01024F00228C
:0C01D2007F0AEA24FFFDE434FFFC7E00FD
:0801DE008E0D8F0E8C0F8D10A9
:1001E6007F017E00E4FBEBC39510E50F6480F87495
:0E01F6008098500AAC0DAD0E12003B0B80E855
:0102040022D7
:04026E008A0A8B0B62
:100272001202A2AA0CEAD39400400D1201D2AC0AD7
:08028200AD0B1202501A80EDD1
:01028A002251
:100127001202A2C3EA64809480400B7F2B12026400
:100137008A168B17800E7F2D120264C3E49BF51776
:10014700E49AF516AA15EAD39400400D1201D2AC31
:0901570016AD171202501A80EDDA
:01016000227C
:040161008A1F8B2046
:100165001202A2AA21EAD3940040297F101201D4D9
:10017500AC1FAD20CFCDCFCECCCE12004DEF540F5E
:10018500FEC3940AEE5004243080022437FF120285
:04019500641A80D197
:010199002243
:04019A008A248B2503
:10019E001202A2AA26EAD394004028EA24FFFDE424
:1001AE0034FFFC7F027E001201DEAC24AD25CFCDE4
:1001BE00CFCECCCE12004DEF54012430FF1202648C
:0301CE001A80D2C2
:0101D100220B
:10028B005389F0438901758A18758CFCC28DD28C09
:07029B00D2A9D2AFC2B922C3
:030000000202FEFB
:0C02FE00787FE4F6D8FD7581260200A28E
:10000E00BB010CE58229F582E5833AF583E02250A7
:10001E0006E92582F8E622BBFE06E92582F8E222F1
:0D002E00E58229F582E5833AF583E493220B
:10003B00EF8DF0A4A8F0CF8CF0A428CE8DF0A42ED9
:02004B00FE2293
:10004D00BC000BBE0029EF8DF084FFADF022E4CC97
:10005D00F875F008EF2FFFEE33FEEC33FCEE9DEC60
:10006D00984005FCEE9DFE0FD5F0E9E4CEFD22EDA6
:10007D00F8F5F0EE8420D21CFEADF075F008EF2FF0
:10008D00FFED33FD4007985006D5F0F222C398FDE1
:05009D000FD5F0EA227E
:00000001FF
