:020000040800F2
:10000000680600206D010008DD060008F104000804
:10001000D906000829020008B908000800000000FD
:100020000000000000000000000000001D070008A4
:100030009502000800000000E10600084D080008D5
:100040008701000887010008870100088701000870
:100050008701000887010008870100088701000860
:100060008701000887010008870100088701000850
:100070008701000887010008870100088701000840
:100080008701000887010008870100088701000830
:100090008701000887010008870100088701000820
:1000A0008701000887010008870100088701000810
:1000B0008701000887010008870100088701000800
:1000C00087010008870100088701000887010008F0
:1000D00087010008870100088701000887010008E0
:1000E00087010008870100088701000800F002F876
:1000F00000F02CF80AA090E8000C82448344AAF196
:100100000107DA4501D100F021F8AFF2090EBAE893
:100110000F0013F0010F18BFFB1A43F0010318473B
:1001200030080000400800000023002400250026BD
:10013000103A28BF78C1FBD8520728BF30C148BF4A
:100140000B6070471FB51FBD10B510BD00F031F832
:100150001146FFF7F7FF00F0B1FB00F04FF803B4D2
:10016000FFF7F2FF03BC00F057F800000948804792
:1001700009480047FEE7FEE7FEE7FEE7FEE7FEE789
:10018000FEE7FEE7FEE7FEE704480549054A064BA1
:100190007047000051080008ED00000868000020CA
:1001A000680600206802002068020020704770473F
:1001B0007047754600F02CF8AE4605006946534678
:1001C00020F00700854618B020B5FFF7DDFFBDE839
:1001D00020404FF000064FF000074FF000084FF0AE
:1001E000000BAC46ACE8C009ACE8C009ACE8C009FB
:1001F000ACE8C00921F007018D46704710B50446F0
:10020000AFF300802046BDE81040FFF7A8BF000014
:10021000004870470000002001491820ABBEFEE7EF
:100220002600020070470000FFE7FEE780B584B0BB
:100230000820012100F056FA10208DF80F004FF42D
:1002400080500290ADF80C0003208DF80E0040F6AF
:100250000040C4F20100019003A900F057F8019892
:10026000029900F03BF904B080BD000080B540F673
:100270000040C4F201004FF4805100F02FF980BD1E
:1002800080B540F60040C4F201004FF4805100F008
:100290001BF980BD7047000080B582B00190FFE778
:1002A0000198411E019128B1FFE74FF47A7000F0E8
:1002B00003F8F5E702B080BD81B00090009800EB34
:1002C000C000C0004EF21401CEF2000108604EF2F0
:1002D0001801CEF20001002008604EF21001CEF2AB
:1002E000000105200860FFE74EF21000CEF200008A
:1002F0000068C003002801D4FFE7F5E74EF21001C3
:10030000CEF200010420086001B0704788B0079069
:1003100006910020059004900390029001900090B7
:100320000698C07800F00F0005900698C078C006C7
:10033000002806D5FFE706988178059808430590C0
:10034000FFE70698007800284BD0FFE70798006881
:10035000019000200390FFE7039807283DD8FFE7AE
:10036000039901208840029006980088029908406D
:1003700004900498029988422AD1FFE703988000EC
:10038000029002990F2088400090009901988843BC
:1003900001900598029900FA01F101980843019033
:1003A0000698C078282806D1FFE7039901208840E5
:1003B000079948610BE00698C078482806D1FFE706
:1003C00003990120884007990861FFE7FFE7FFE7ED
:1003D000FFE7039801300390BEE701980799086092
:1003E000FFE706980088B0F5807F50DBFFE70798AD
:1003F0004068019000200390FFE70398072842D847
:10040000FFE7039800F10801012088400290069858
:1004100000880299084004900498029988422DD1DE
:10042000FFE703988000029002990F208840009017
:1004300000990198884301900598029900FA01F10A
:100440000198084301900698C078282808D1FFE752
:10045000039800F108010120884007994861FFE7EF
:100460000698C078482808D1FFE7039800F10801F2
:100470000120884007990861FFE7FFE7FFE703983D
:1004800001300390B9E7019807994860FFE708B089
:100490007047000082B00190ADF8021000208DF886
:1004A000010001988068BDF80210084204D0FFE7FF
:1004B00001208DF8010003E000208DF80100FFE726
:1004C0009DF8010002B0704782B00190ADF80210B3
:1004D000BDF802000199486102B0704782B00190F6
:1004E000ADF80210BDF802000199086102B0704732
:1004F000FFE7FEE780B582B000208DF8070040F6E8
:100500000040C4F201000221FFF7C4FFA8B9FFE7D1
:100510001420FFF7C1FEFFE740F60040C4F20100DF
:100520000221FFF7B7FF08B9FFE7F5E71420FFF74F
:10053000B3FE01208DF80700FFE740F60040C4F24B
:1005400001004FF40061FFF7A5FFB0B9FFE71420E9
:10055000FFF7A2FEFFE740F60040C4F201004FF4AF
:100560000061FFF797FF08B9FFE7F4E71420FFF7F2
:1005700093FE02208DF80700FFE79DF8070002B008
:1005800080BD000080B582B00820012100F0AAF8EB
:1005900048208DF8070040F60200ADF80400032063
:1005A0008DF8060040F60040C4F2010001A9FFF7F3
:1005B000ADFE02B080BD000080B584B004200121F2
:1005C00000F090F810208DF80F0006200290ADF892
:1005D0000C0003208DF80E0040F60000C4F201006C
:1005E000019003A9FFF792FE01980299FFF776FFA9
:1005F00004B080BD80B582B08DF807008DF806107C
:100600009DF8070001280CD1FFE79DF8060040B9CE
:10061000FFE740F60000C4F201000221FFF75EFF91
:10062000FFE79DF8070001280DD1FFE79DF80600C0
:10063000012808D1FFE740F60000C4F201000221C2
:10064000FFF742FFFFE79DF8070002280CD1FFE704
:100650009DF8060040B9FFE740F60000C4F2010033
:100660000421FFF73BFFFFE79DF8070002280DD1AB
:10067000FFE79DF80600012808D1FFE740F60000DB
:10068000C4F201000421FFF71FFFFFE702B080BDA5
:1006900080B540F60040C4F201004FF40051FFF76E
:1006A000F9FE80BD80B582B00820012100F01AF863
:1006B00048208DF807004FF40050ADF804000320E7
:1006C0008DF8060040F60040C4F2010001A9FFF7D2
:1006D0001DFE02B080BD0000FFE7FEE7704700008E
:1006E0007047000082B001908DF803109DF8030060
:1006F00048B1FFE7019A41F21801C4F2020108680B
:100700001043086008E0019A41F21801C4F20201A6
:10071000086890430860FFE702B070477047000028
:1007200080B500F001F880BD84B0002003900290F5
:1007300041F20001C4F20201086840F48030086010
:10074000FFE741F20000C4F20200006800F400304C
:100750000290039801300390FFE702990020019076
:1007600039B9FFE70398B0F5A06018BF01200190E8
:10077000FFE70198C0070028E3D1FFE741F200003E
:10078000C4F2020000688003002803D5FFE70120BF
:10079000029002E000200290FFE70298012851D168
:1007A000FFE742F20001C4F20201086840F01000C5
:1007B0000860086820F003000860086840F0020044
:1007C000086041F20401C4F2020100910868086067
:1007D00008680860086840F480600860086820F4D1
:1007E0007C100860086840F4E810086041F20001DD
:1007F000C4F20201086840F080700860FFE741F22F
:100800000000C4F2020000688001002801D4FFE764
:10081000F5E741F20401C4F20201086820F0030088
:100820000860086840F002000860FFE741F2040039
:10083000C4F20200006800F00C00082801D0FFE7B5
:10084000F4E700E0FFE704B07047000070470000E5
:1008500080B541F20002C4F20202106840F00100CB
:10086000106041F20401C4F2020108680023CFF6CF
:10087000FF031840086010684FF6FF73CFF6F66369
:1008800018401060106820F480201060086820F480
:10089000FE00086041F20801C4F202014FF41F009B
:1008A0000860FFF73DFF4EF60851CEF200014FF011
:1008B0000060086080BD0000FFE7FEE780B582B001
:1008C00000200190FFF778FEFFF75CFEFFF7AEFC1B
:1008D000FFF7E8FEFFE7FFF70DFE014640F260007C
:1008E000C2F200000170007801280ED1FFE740F24B
:1008F0006100C2F200000178B1FA81F1490901708A
:1009000001780120FFF776FEFFE740F26000C2F2B7
:100910000000007802280ED1FFE740F26200C2F228
:1009200000000178B1FA81F14909017001780220D3
:10093000FFF760FEFFE7FFF7ABFE012803D1FFE7FB
:10094000FFF79EFC02E0FFF791FCFFE7C3E7000022
:100950006009000800000020680600002801000867
:040000050800016D81
:00000001FF
