:0603570068656C6C6F008C
:10029B001202F57BFF7A0379577D017F0212020070
:0802AB00E4F5A01202B380FE8D
:03000B000201B03F
:0401B000C0E0C0D01B
:1001B400758A18758CFC052BE52B7002052AC394EF
:1001C400E8E52A94034009752A00752B0063A0FF13
:0501D400D0D0D0E032A4
:0601D9008F1E8C1F8D201B
:1001DF007521FF12034E7FA012027F120318AF1E6C
:1001EF0012027F120318AF2012027F1203180200AF
:0101FF0003FC
:020180008F2CC2
:1001820012034E7FA012027F120318AF2C12027FBD
:1001920012031812034E7FA112027F1203181202D9
:0D01A200238F2D7F01120330120003AF2DBB
:0101AF00222D
:09034E00D2A1D2A0C2A0C2A122DA
:07000300C2A0D2A1D2A0228D
:10027F00E4FE7D80A806ED088002C313D8FC5F243E
:0B028F00FF92A0D2A1C2A10EBE08E9A0
:01029A002241
:10022300E4FFFE7D80D2A030A00CA807ED08800279
:10023300C313D8FC4206D2A1C2A10FBF08E9AF067F
:010243002298
:0A033000EF24FF92A0D2A1C2A12287
:0B031800E4D2A0A2A033FFD2A1C2A13A
:0103230022B7
:06030900C2A58F80D2A7FF
:08030F007F027EEFDEFEDFFC41
:0103170022C3
:0A033A00C2A6120309C2A702030FB6
:10024400CFCDCFCECCCE12004D7C007D0A12004D16
:04025400ED2430FF66
:0A025800D2A6120309C2A702030F89
:1002CA00AE07BE0104ED148006BE0209ED243F44C8
:0602DA0080FF12033A222E
:1002F5007F3812033A7F0C12033A7F0612033A7FC6
:040305000102033AB4
:0A034400AC031202CAAF0402025813
:060200008B278A288929E2
:100206001202CAE4FDAB27AA28A9298D82758300AC
:0C02160012000EFF60061202580D80E975
:0102220022B9
:0C014D007F0AEA24FFFDE434FFFC7E0082
:080159008E228F238C248D25DA
:100161007F017E00E4FBEBC39525E5246480F874F0
:0E0171008098500AAC22AD2312003B0B80E8B0
:01017F00225D
:040262008A118B1260
:100266001202CAAA13EAD39400400D12014DAC1132
:08027600AD121202441A80EDE2
:01027E00225D
:1000A2001202CAC3EA64809480400B7F2B1202586A
:1000B2008A0D8B0E800E7F2D120258C3E49BF50E23
:1000C200E49AF50DAA0CEAD39400400D12014DAC4E
:0900D2000DAD0E1202441A80ED7E
:0100DB002202
:0400DC008A168B17DE
:1000E0001202CAAA18EAD3940040297F1012014FC5
:1000F000AC16AD17CFCDCFCECCCE12004DEF540FF6
:10010000FEC3940AEE5004243080022437FF12020A
:04011000581A80D128
:0101140022C8
:040115008A1B8B1C9A
:100119001202CAAA1DEAD394004028EA24FFFDE48A
:1001290034FFFC7F027E00120159AC1BAD1CCFCD00
:10013900CFCECCCE12004DEF54012430FF1202581D
:030149001A80D247
:01014C002290
:1002E000EF1FAC0670011E4C600A7D027CC7DCFE6D
:0402F000DDFC80ECC5
:0102F40022E7
:1002B3005389F0438901758A18758CFCC28DD28CE1
:0702C300D2A9D2AFC2B9229B
:03000000020324D4
:0C032400787FE4F6D8FD75812D02029B65
:10000E00BB010CE58229F582E5833AF583E02250A7
:10001E0006E92582F8E622BBFE06E92582F8E222F1
:0D002E00E58229F582E5833AF583E493220B
:10003B00EF8DF0A4A8F0CF8CF0A428CE8DF0A42ED9
:02004B00FE2293
:10004D00BC000BBE0029EF8DF084FFADF022E4CC97
:10005D00F875F008EF2FFFEE33FEEC33FCEE9DEC60
:10006D00984005FCEE9DFE0FD5F0E9E4CEFD22EDA6
:10007D00F8F5F0EE8420D21CFEADF075F008EF2FF0
:10008D00FFED33FD4007985006D5F0F222C398FDE1
:05009D000FD5F0EA227E
:00000001FF
