:10021700EF1FAC0670011E4C600A7D0B7CBEDCFE36
:04022700DDFC80EC8E
:01022B0022B0
:06024000C2A58F80D2A7C9
:080246007F027EEFDEFEDFFC0B
:01024E00228D
:0A025B00C2A6120240C2A70202462A
:10019800CFCDCFCECCCE1200427C007D0A120042D9
:0401A800ED2430FF13
:0A01AC00D2A6120240C2A7020246CA
:10020100AE07BE0104ED148006BE0209ED243F4491
:0602110080FF12025B22D7
:10022C007F3812025B7F0C12025B7F0612025B7F2F
:04023C000102025B5E
:0A026500AC03120201AF040201AC69
:060175008B228A2389247D
:10017B00120201E4FDAB22AA23A9248D8275830010
:0C018B00120003FF60061201AC0D80E9B9
:010197002245
:0C0142007F0AEA24FFFDE434FFFC7E008D
:08014E008E1E8F1F8C208D21F5
:100156007F017E00E4FBEBC39521E5206480F87403
:0E0166008098500AAC1EAD1F1200300B80E8CE
:010174002268
:0401B6008A118B120D
:1001BA00120201AA13EAD39400400D120142AC11B3
:0801CA00AD121201981A80ED3C
:0101D200220A
:10009700120201C3EA64809480400B7F2B1201ACEB
:1000A7008A0D8B0E800E7F2D1201ACC3E49BF50EDB
:1000B700E49AF50DAA0CEAD39400400D120142AC64
:0900C7000DAD0E1201981A80ED36
:0100D000220D
:0400D1008A168B17E9
:1000D500120201AA18EAD3940040297F10120144A4
:1000E500AC16AD17CFCDCFCECCCE120042EF540F0C
:1000F500FEC3940AEE5004243080022437FF120117
:04010500AC1A80D1DF
:0101090022D3
:04010A008A1B8B1CA5
:10010E00120201AA1DEAD394004028EA24FFFDE45E
:10011E0034FFFC7F027E0012014EAC1BAD1CCFCD16
:10012E00CFCECCCE120042EF54012430FF1201ACE0
:03013E001A80D252
:01014100229B
:0A026F001201EA7F7B12027980FE83
:1001D3005389F0438901758A18758CFCC28DD28CC2
:0701E300D2A9D2AFC2B9227C
:1001EA0075985075878053890F438920D28EC2AB88
:0701FA00758BF3758DF322F4
:080279008F993099FDC2992212
:0300000002024FAA
:0C024F00787FE4F6D8FD75812402026F70
:10000300BB010CE58229F582E5833AF583E02250B2
:1000130006E92582F8E622BBFE06E92582F8E222FC
:0D002300E58229F582E5833AF583E4932216
:10003000EF8DF0A4A8F0CF8CF0A428CE8DF0A42EE4
:02004000FE229E
:10004200BC000BBE0029EF8DF084FFADF022E4CCA2
:10005200F875F008EF2FFFEE33FEEC33FCEE9DEC6B
:10006200984005FCEE9DFE0FD5F0E9E4CEFD22EDB1
:10007200F8F5F0EE8420D21CFEADF075F008EF2FFB
:10008200FFED33FD4007985006D5F0F222C398FDEC
:050092000FD5F0EA2289
:00000001FF
