:0401A100020E00004A
:100173001201A6AF0FAE0E12008FE50F2401FF751B
:090183000E00EF541FF50F80EA95
:10018C00EF1FAC0670011E4C600A7D0B7CBEDCFEC2
:04019C00DDFC80EC1A
:0101A000223C
:1000D4000000007E00100010007E00000000003EC2
:1000E400002A002A003A00000000003E002A002AEC
:1000F400003A00000000003E000200000000003E44
:10010400000200000000001C00220022001C00006D
:040114008E0C8F0DB1
:10011800E4FBFAAF037E007480A807088006CEA22D
:10012800E713CE13D8F8FFE50C5EFEE50D5F4E240D
:10013800FF92B4D2B6C2B60BBB00010AEB64084A00
:0601480070D1D2B5C2B572
:01014E00228E
:10014F008F82AF05AE04120114AF82A80774800826
:10015F008002C313D8FCF4F5807F017E0012018C5E
:04016F007580FF2276
:04008F008E088F093F
:10009300E4F50AF50BF50AF50BE50B2509FFEF541B
:1000A3001F25E0FFE433FE74D42FF58274003EF580
:1000B30083E493FC740193FDAF0BAE0A12014F0569
:1000C3000BE50B7002050AC39408E50A940040C9C6
:0100D300220A
:0501A600C2B5C2B62243
:03000000020003F8
:0C000300787FE4F6D8FD75810F02004AFA
:10000F00020173E493A3F8E493A34003F68001F293
:10001F0008DFF48029E493A3F85407240CC8C333F2
:10002F00C4540F4420C8834004F456800146F6DFC1
:10003F00E4800B01020408102040809001A1E47EAF
:10004F00019360BCA3FF543F30E509541FFEE493B6
:10005F00A360010ECF54C025E060A840B8E493A37D
:10006F00FAE493A3F8E493A3C8C582C8CAC583CAA8
:10007F00F0A3C8C582C8CAC583CADFE9DEE780BE60
:0101A5000059
:00000001FF
