:1002E50048523A00424D500055703A004C6F773AEB
:0102F5000008
:1000A2001202D17BFF7A0279E57D017F01120248BB
:1000B200E515FB7A00750C037D057F011202897B31
:1000C200FF7A0279E97D097F011202487BFF7A02F9
:1000D20079ED7D017F02120248750C037B7E7A0066
:1000E2007D057F021202897BFF7A0279F17D097F09
:1000F20002120248750C027B0C7A007D0E7F0212FE
:04010200028980FEF0
:03000300020305F0
:0D0305008516118517127516007517003248
:03000B00020106E9
:10010600C0E0C0F0C0D075D000C000C004C005C0BB
:1001160006C007758A66758CFC0517E5177002051B
:10012600160514E51470020513451370047F01804B
:10013600027F007E007C017DF412004DED4C6013C1
:10014600751300751400AC11AD127E177F70120086
:100156004D8F15D007D006D005D004D000D0D0D012
:04016600F0D0E032C3
:0602F600C2A18F80D2A21C
:0802FC007F027EEFDEFEDFFC55
:0103040022D6
:0A031E00C2A01202F6C2A20202FC05
:10026B00CFCDCFCECCCE12004D7C007D0A12004DEF
:04027B00ED2430FF3F
:0A027F00D2A01202F6C2A20202FC95
:1002A600AE07BE0104ED148006BE0209ED243F44EC
:0602B60080FF12031E226E
:1002D1007F3812031E7F0C12031E7F0612031E7F3E
:0402E1000102031EF5
:0A032800AC031202A6AF0402027F2C
:060248008B088A09890AF7
:10024E001202A6E4FDAB08AA09A90A8D82758300E5
:0C025E0012000EFF600612027F0D80E906
:01026A002271
:0C0215007F0AEA24FFFDE434FFFC7E00B9
:080221008E0D8F0E8C0F8D1065
:100229007F017E00E4FBEBC39510E50F6480F87451
:0E0239008098500AAC0DAD0E12003B0B80E811
:010247002294
:040289008A0A8B0B47
:10028D001202A6AA0CEAD39400400D120215AC0A74
:08029D00AD0B12026B1A80ED9B
:0102A5002236
:10016A001202A6C3EA64809480400B7F2B12027F9E
:10017A008A1D8B1E800E7F2D12027FC3E49BF51E03
:10018A00E49AF51DAA1CEAD39400400D120215AC9C
:09019A001DAD1E12026B1A80ED6E
:0101A3002239
:0401A4008A218B22FF
:1001A8001202A6AA23EAD3940040297F101202174C
:1001B800AC21AD22CFCDCFCECCCE12004DEF540F17
:1001C800FEC3940AEE5004243080022437FF120242
:0401D8007F1A80D139
:0101DC002200
:0401DD008A268B27BC
:1001E1001202A6AA28EAD394004028EA24FFFDE4DB
:1001F10034FFFC7F027E00120221AC26AD27CFCD59
:10020100CFCECCCE12004DEF54012430FF12027F2D
:030211001A80D27E
:0102140022C7
:1002BC005389F0438901758A66758CFCC28DD28C8A
:0502CC00D2A9D2AF220F
:09033200D288D2A8D2AFD2B822C1
:03000000020312E6
:0C031200787FE4F6D8FD7581280200A277
:10000E00BB010CE58229F582E5833AF583E02250A7
:10001E0006E92582F8E622BBFE06E92582F8E222F1
:0D002E00E58229F582E5833AF583E493220B
:10003B00EF8DF0A4A8F0CF8CF0A428CE8DF0A42ED9
:02004B00FE2293
:10004D00BC000BBE0029EF8DF084FFADF022E4CC97
:10005D00F875F008EF2FFFEE33FEEC33FCEE9DEC60
:10006D00984005FCEE9DFE0FD5F0E9E4CEFD22EDA6
:10007D00F8F5F0EE8420D21CFEADF075F008EF2FF0
:10008D00FFED33FD4007985006D5F0F222C398FDE1
:05009D000FD5F0EA227E
:00000001FF
